{
  "_format": "hh-sol-artifact-1",
  "contractName": "FunPortal",
  "sourceName": "contracts/FunPortal.sol",
  "abi": [
    {
      "inputs": [],
      "stateMutability": "nonpayable",
      "type": "constructor"
    },
    {
      "inputs": [
        {
          "internalType": "string",
          "name": "_funMessage",
          "type": "string"
        }
      ],
      "name": "Fun",
      "outputs": [],
      "stateMutability": "nonpayable",
      "type": "function"
    },
    {
      "inputs": [],
      "name": "getTotalFuns",
      "outputs": [
        {
          "internalType": "uint256",
          "name": "",
          "type": "uint256"
        }
      ],
      "stateMutability": "view",
      "type": "function"
    },
    {
      "inputs": [
        {
          "internalType": "address",
          "name": "_address",
          "type": "address"
        }
      ],
      "name": "returnMessageDetails",
      "outputs": [
        {
          "components": [
            {
              "internalType": "string",
              "name": "Message",
              "type": "string"
            },
            {
              "internalType": "address",
              "name": "funSender",
              "type": "address"
            },
            {
              "internalType": "uint256",
              "name": "timestamp",
              "type": "uint256"
            }
          ],
          "internalType": "struct FunPortal.FunMessage",
          "name": "",
          "type": "tuple"
        }
      ],
      "stateMutability": "view",
      "type": "function"
    },
    {
      "inputs": [],
      "name": "returnMessageDetailss",
      "outputs": [
        {
          "components": [
            {
              "internalType": "string",
              "name": "Message",
              "type": "string"
            },
            {
              "internalType": "address",
              "name": "funSender",
              "type": "address"
            },
            {
              "internalType": "uint256",
              "name": "timestamp",
              "type": "uint256"
            }
          ],
          "internalType": "struct FunPortal.FunMessage[]",
          "name": "",
          "type": "tuple[]"
        }
      ],
      "stateMutability": "view",
      "type": "function"
    }
  ],
  "bytecode": "0x60806040523480156200001157600080fd5b5062000041604051806060016040528060248152602001620010da602491396200004760201b6200059e1760201c565b620001db565b620000e7816040516024016200005e919062000154565b6040516020818303038152906040527f41304fac000000000000000000000000000000000000000000000000000000007bffffffffffffffffffffffffffffffffffffffffffffffffffffffff19166020820180517bffffffffffffffffffffffffffffffffffffffffffffffffffffffff8381831617835250505050620000ea60201b60201c565b50565b60008151905060006a636f6e736f6c652e6c6f679050602083016000808483855afa5050505050565b6000620001208262000178565b6200012c818562000183565b93506200013e81856020860162000194565b6200014981620001ca565b840191505092915050565b6000602082019050818103600083015262000170818462000113565b905092915050565b600081519050919050565b600082825260208201905092915050565b60005b83811015620001b457808201518184015260208101905062000197565b83811115620001c4576000848401525b50505050565b6000601f19601f8301169050919050565b610eef80620001eb6000396000f3fe608060405234801561001057600080fd5b506004361061004c5760003560e01c8063098c356414610051578063c5e0bc7e14610081578063faf91e851461009f578063ff89a95a146100bb575b600080fd5b61006b600480360381019061006691906108ef565b6100d9565b6040516100789190610bd4565b60405180910390f35b610089610224565b6040516100969190610b30565b60405180910390f35b6100b960048036038101906100b49190610918565b610375565b005b6100c3610553565b6040516100d09190610bf6565b60405180910390f35b6100e1610798565b600260008373ffffffffffffffffffffffffffffffffffffffff1673ffffffffffffffffffffffffffffffffffffffff16815260200190815260200160002060405180606001604052908160008201805461013b90610da1565b80601f016020809104026020016040519081016040528092919081815260200182805461016790610da1565b80156101b45780601f10610189576101008083540402835291602001916101b4565b820191906000526020600020905b81548152906001019060200180831161019757829003601f168201915b505050505081526020016001820160009054906101000a900473ffffffffffffffffffffffffffffffffffffffff1673ffffffffffffffffffffffffffffffffffffffff1673ffffffffffffffffffffffffffffffffffffffff1681526020016002820154815250509050919050565b60606001805480602002602001604051908101604052809291908181526020016000905b8282101561036c578382906000526020600020906003020160405180606001604052908160008201805461027b90610da1565b80601f01602080910402602001604051908101604052809291908181526020018280546102a790610da1565b80156102f45780601f106102c9576101008083540402835291602001916102f4565b820191906000526020600020905b8154815290600101906020018083116102d757829003601f168201915b505050505081526020016001820160009054906101000a900473ffffffffffffffffffffffffffffffffffffffff1673ffffffffffffffffffffffffffffffffffffffff1673ffffffffffffffffffffffffffffffffffffffff16815260200160028201548152505081526020019060010190610248565b50505050905090565b60016000808282546103879190610ccd565b92505081905550600060405180606001604052808381526020013373ffffffffffffffffffffffffffffffffffffffff1681526020014281525090506001819080600181540180825580915050600190039060005260206000209060030201600090919091909150600082015181600001908051906020019061040b9291906107cf565b5060208201518160010160006101000a81548173ffffffffffffffffffffffffffffffffffffffff021916908373ffffffffffffffffffffffffffffffffffffffff16021790555060408201518160020155505080600260003373ffffffffffffffffffffffffffffffffffffffff1673ffffffffffffffffffffffffffffffffffffffff16815260200190815260200160002060008201518160000190805190602001906104bb9291906107cf565b5060208201518160010160006101000a81548173ffffffffffffffffffffffffffffffffffffffff021916908373ffffffffffffffffffffffffffffffffffffffff1602179055506040820151816002015590505061054f6040518060400160405280601b81526020017f2573206861732073656e6420736f6d652066756e20737475666621000000000081525033610637565b5050565b60006105966040518060400160405280601d81526020017f5765206861766520256420746f74616c2066756e7320737475666673210000008152506000546106d3565b600054905090565b610634816040516024016105b29190610b52565b6040516020818303038152906040527f41304fac000000000000000000000000000000000000000000000000000000007bffffffffffffffffffffffffffffffffffffffffffffffffffffffff19166020820180517bffffffffffffffffffffffffffffffffffffffffffffffffffffffff838183161783525050505061076f565b50565b6106cf828260405160240161064d929190610b74565b6040516020818303038152906040527f319af333000000000000000000000000000000000000000000000000000000007bffffffffffffffffffffffffffffffffffffffffffffffffffffffff19166020820180517bffffffffffffffffffffffffffffffffffffffffffffffffffffffff838183161783525050505061076f565b5050565b61076b82826040516024016106e9929190610ba4565b6040516020818303038152906040527f9710a9d0000000000000000000000000000000000000000000000000000000007bffffffffffffffffffffffffffffffffffffffffffffffffffffffff19166020820180517bffffffffffffffffffffffffffffffffffffffffffffffffffffffff838183161783525050505061076f565b5050565b60008151905060006a636f6e736f6c652e6c6f679050602083016000808483855afa5050505050565b604051806060016040528060608152602001600073ffffffffffffffffffffffffffffffffffffffff168152602001600081525090565b8280546107db90610da1565b90600052602060002090601f0160209004810192826107fd5760008555610844565b82601f1061081657805160ff1916838001178555610844565b82800160010185558215610844579182015b82811115610843578251825591602001919060010190610828565b5b5090506108519190610855565b5090565b5b8082111561086e576000816000905550600101610856565b5090565b600061088561088084610c36565b610c11565b90508281526020810184848401111561089d57600080fd5b6108a8848285610d5f565b509392505050565b6000813590506108bf81610ea2565b92915050565b600082601f8301126108d657600080fd5b81356108e6848260208601610872565b91505092915050565b60006020828403121561090157600080fd5b600061090f848285016108b0565b91505092915050565b60006020828403121561092a57600080fd5b600082013567ffffffffffffffff81111561094457600080fd5b610950848285016108c5565b91505092915050565b60006109658383610a72565b905092915050565b61097681610d23565b82525050565b61098581610d23565b82525050565b600061099682610c77565b6109a08185610c9a565b9350836020820285016109b285610c67565b8060005b858110156109ee57848403895281516109cf8582610959565b94506109da83610c8d565b925060208a019950506001810190506109b6565b50829750879550505050505092915050565b6000610a0b82610c82565b610a158185610cab565b9350610a25818560208601610d6e565b610a2e81610e91565b840191505092915050565b6000610a4482610c82565b610a4e8185610cbc565b9350610a5e818560208601610d6e565b610a6781610e91565b840191505092915050565b60006060830160008301518482036000860152610a8f8282610a00565b9150506020830151610aa4602086018261096d565b506040830151610ab76040860182610b12565b508091505092915050565b60006060830160008301518482036000860152610adf8282610a00565b9150506020830151610af4602086018261096d565b506040830151610b076040860182610b12565b508091505092915050565b610b1b81610d55565b82525050565b610b2a81610d55565b82525050565b60006020820190508181036000830152610b4a818461098b565b905092915050565b60006020820190508181036000830152610b6c8184610a39565b905092915050565b60006040820190508181036000830152610b8e8185610a39565b9050610b9d602083018461097c565b9392505050565b60006040820190508181036000830152610bbe8185610a39565b9050610bcd6020830184610b21565b9392505050565b60006020820190508181036000830152610bee8184610ac2565b905092915050565b6000602082019050610c0b6000830184610b21565b92915050565b6000610c1b610c2c565b9050610c278282610dd3565b919050565b6000604051905090565b600067ffffffffffffffff821115610c5157610c50610e62565b5b610c5a82610e91565b9050602081019050919050565b6000819050602082019050919050565b600081519050919050565b600081519050919050565b6000602082019050919050565b600082825260208201905092915050565b600082825260208201905092915050565b600082825260208201905092915050565b6000610cd882610d55565b9150610ce383610d55565b9250827fffffffffffffffffffffffffffffffffffffffffffffffffffffffffffffffff03821115610d1857610d17610e04565b5b828201905092915050565b6000610d2e82610d35565b9050919050565b600073ffffffffffffffffffffffffffffffffffffffff82169050919050565b6000819050919050565b82818337600083830152505050565b60005b83811015610d8c578082015181840152602081019050610d71565b83811115610d9b576000848401525b50505050565b60006002820490506001821680610db957607f821691505b60208210811415610dcd57610dcc610e33565b5b50919050565b610ddc82610e91565b810181811067ffffffffffffffff82111715610dfb57610dfa610e62565b5b80604052505050565b7f4e487b7100000000000000000000000000000000000000000000000000000000600052601160045260246000fd5b7f4e487b7100000000000000000000000000000000000000000000000000000000600052602260045260246000fd5b7f4e487b7100000000000000000000000000000000000000000000000000000000600052604160045260246000fd5b6000601f19601f8301169050919050565b610eab81610d23565b8114610eb657600080fd5b5056fea2646970667358221220a8033b89efe1353201682e4a85aa9a4740c27538211b2b5a5bd1756a4a588eeb64736f6c63430008030033596f20796f2c204920616d206120636f6e747261637420616d204920616d20736d617274",
  "linkReferences": {},
  "deployedLinkReferences": {}
}