{
  "_format": "hh-sol-artifact-1",
  "contractName": "FunPortal",
  "sourceName": "contracts/FunPortal.sol",
  "abi": [
    {
      "inputs": [],
      "stateMutability": "nonpayable",
      "type": "constructor"
    },
    {
      "inputs": [],
      "name": "Fun",
      "outputs": [],
      "stateMutability": "nonpayable",
      "type": "function"
    },
    {
      "inputs": [
        {
          "internalType": "address",
          "name": "_funnerAddress",
          "type": "address"
        }
      ],
      "name": "getFunners",
      "outputs": [
        {
          "internalType": "uint256",
          "name": "",
          "type": "uint256"
        }
      ],
      "stateMutability": "view",
      "type": "function"
    },
    {
      "inputs": [],
      "name": "getTotalFuns",
      "outputs": [
        {
          "internalType": "uint256",
          "name": "",
          "type": "uint256"
        }
      ],
      "stateMutability": "view",
      "type": "function"
    }
  ],
  "bytecode": "0x608060405234801561001057600080fd5b5061003c6040518060600160405280602481526020016108976024913961004160201b6101e11760201c565b6101c4565b6100dd816040516024016100559190610142565b6040516020818303038152906040527f41304fac000000000000000000000000000000000000000000000000000000007bffffffffffffffffffffffffffffffffffffffffffffffffffffffff19166020820180517bffffffffffffffffffffffffffffffffffffffffffffffffffffffff83818316178352505050506100e060201b60201c565b50565b60008151905060006a636f6e736f6c652e6c6f679050602083016000808483855afa5050505050565b600061011482610164565b61011e818561016f565b935061012e818560208601610180565b610137816101b3565b840191505092915050565b6000602082019050818103600083015261015c8184610109565b905092915050565b600081519050919050565b600082825260208201905092915050565b60005b8381101561019e578082015181840152602081019050610183565b838111156101ad576000848401525b50505050565b6000601f19601f8301169050919050565b6106c4806101d36000396000f3fe608060405234801561001057600080fd5b50600436106100415760003560e01c80632e9d4a9f14610046578063e688615b14610050578063ff89a95a14610080575b600080fd5b61004e61009e565b005b61006a600480360381019061006591906103f0565b61014d565b60405161007791906104f2565b60405180910390f35b610088610196565b60405161009591906104f2565b60405180910390f35b60016000808282546100b09190610529565b92505081905550600160003373ffffffffffffffffffffffffffffffffffffffff1673ffffffffffffffffffffffffffffffffffffffff1681526020019081526020016000206000815480929190610107906105ee565b919050555061014b6040518060400160405280601b81526020017f2573206861732073656e6420736f6d652066756e2073747566662100000000008152503361027a565b565b6000600160008373ffffffffffffffffffffffffffffffffffffffff1673ffffffffffffffffffffffffffffffffffffffff168152602001908152602001600020549050919050565b60006101d96040518060400160405280601d81526020017f5765206861766520256420746f74616c2066756e732073747566667321000000815250600054610316565b600054905090565b610277816040516024016101f59190610470565b6040516020818303038152906040527f41304fac000000000000000000000000000000000000000000000000000000007bffffffffffffffffffffffffffffffffffffffffffffffffffffffff19166020820180517bffffffffffffffffffffffffffffffffffffffffffffffffffffffff83818316178352505050506103b2565b50565b6103128282604051602401610290929190610492565b6040516020818303038152906040527f319af333000000000000000000000000000000000000000000000000000000007bffffffffffffffffffffffffffffffffffffffffffffffffffffffff19166020820180517bffffffffffffffffffffffffffffffffffffffffffffffffffffffff83818316178352505050506103b2565b5050565b6103ae828260405160240161032c9291906104c2565b6040516020818303038152906040527f9710a9d0000000000000000000000000000000000000000000000000000000007bffffffffffffffffffffffffffffffffffffffffffffffffffffffff19166020820180517bffffffffffffffffffffffffffffffffffffffffffffffffffffffff83818316178352505050506103b2565b5050565b60008151905060006a636f6e736f6c652e6c6f679050602083016000808483855afa5050505050565b6000813590506103ea81610677565b92915050565b60006020828403121561040257600080fd5b6000610410848285016103db565b91505092915050565b6104228161057f565b82525050565b60006104338261050d565b61043d8185610518565b935061044d8185602086016105bb565b61045681610666565b840191505092915050565b61046a816105b1565b82525050565b6000602082019050818103600083015261048a8184610428565b905092915050565b600060408201905081810360008301526104ac8185610428565b90506104bb6020830184610419565b9392505050565b600060408201905081810360008301526104dc8185610428565b90506104eb6020830184610461565b9392505050565b60006020820190506105076000830184610461565b92915050565b600081519050919050565b600082825260208201905092915050565b6000610534826105b1565b915061053f836105b1565b9250827fffffffffffffffffffffffffffffffffffffffffffffffffffffffffffffffff0382111561057457610573610637565b5b828201905092915050565b600061058a82610591565b9050919050565b600073ffffffffffffffffffffffffffffffffffffffff82169050919050565b6000819050919050565b60005b838110156105d95780820151818401526020810190506105be565b838111156105e8576000848401525b50505050565b60006105f9826105b1565b91507fffffffffffffffffffffffffffffffffffffffffffffffffffffffffffffffff82141561062c5761062b610637565b5b600182019050919050565b7f4e487b7100000000000000000000000000000000000000000000000000000000600052601160045260246000fd5b6000601f19601f8301169050919050565b6106808161057f565b811461068b57600080fd5b5056fea2646970667358221220588582f9ef6e13d983523cdb2e04a80292242524870b3e09cf8e8f36846d1c0664736f6c63430008040033596f20796f2c204920616d206120636f6e747261637420616d204920616d20736d617274",
  "linkReferences": {},
  "deployedLinkReferences": {}
}